{
  "_format": "hh-sol-artifact-1",
  "contractName": "Ticket",
  "sourceName": "contracts/Ticket.sol",
  "abi": [
    {
      "inputs": [
        {
          "internalType": "string",
          "name": "_name",
          "type": "string"
        },
        {
          "internalType": "string",
          "name": "_symbol",
          "type": "string"
        }
      ],
      "stateMutability": "nonpayable",
      "type": "constructor"
    },
    {
      "anonymous": false,
      "inputs": [
        {
          "indexed": true,
          "internalType": "address",
          "name": "owner",
          "type": "address"
        },
        {
          "indexed": true,
          "internalType": "address",
          "name": "approved",
          "type": "address"
        },
        {
          "indexed": true,
          "internalType": "uint256",
          "name": "tokenId",
          "type": "uint256"
        }
      ],
      "name": "Approval",
      "type": "event"
    },
    {
      "anonymous": false,
      "inputs": [
        {
          "indexed": true,
          "internalType": "address",
          "name": "owner",
          "type": "address"
        },
        {
          "indexed": true,
          "internalType": "address",
          "name": "operator",
          "type": "address"
        },
        {
          "indexed": false,
          "internalType": "bool",
          "name": "approved",
          "type": "bool"
        }
      ],
      "name": "ApprovalForAll",
      "type": "event"
    },
    {
      "anonymous": false,
      "inputs": [
        {
          "indexed": true,
          "internalType": "address",
          "name": "previousOwner",
          "type": "address"
        },
        {
          "indexed": true,
          "internalType": "address",
          "name": "newOwner",
          "type": "address"
        }
      ],
      "name": "OwnershipTransferred",
      "type": "event"
    },
    {
      "anonymous": false,
      "inputs": [
        {
          "indexed": true,
          "internalType": "address",
          "name": "from",
          "type": "address"
        },
        {
          "indexed": true,
          "internalType": "address",
          "name": "to",
          "type": "address"
        },
        {
          "indexed": true,
          "internalType": "uint256",
          "name": "tokenId",
          "type": "uint256"
        }
      ],
      "name": "Transfer",
      "type": "event"
    },
    {
      "inputs": [
        {
          "internalType": "string",
          "name": "_newBaseURI",
          "type": "string"
        }
      ],
      "name": "_setBaseURI",
      "outputs": [],
      "stateMutability": "nonpayable",
      "type": "function"
    },
    {
      "inputs": [
        {
          "internalType": "address",
          "name": "to",
          "type": "address"
        },
        {
          "internalType": "uint256",
          "name": "tokenId",
          "type": "uint256"
        }
      ],
      "name": "approve",
      "outputs": [],
      "stateMutability": "nonpayable",
      "type": "function"
    },
    {
      "inputs": [
        {
          "internalType": "address",
          "name": "",
          "type": "address"
        }
      ],
      "name": "attendees",
      "outputs": [
        {
          "internalType": "bool",
          "name": "",
          "type": "bool"
        }
      ],
      "stateMutability": "view",
      "type": "function"
    },
    {
      "inputs": [
        {
          "internalType": "address",
          "name": "owner",
          "type": "address"
        }
      ],
      "name": "balanceOf",
      "outputs": [
        {
          "internalType": "uint256",
          "name": "",
          "type": "uint256"
        }
      ],
      "stateMutability": "view",
      "type": "function"
    },
    {
      "inputs": [
        {
          "internalType": "uint256",
          "name": "tokenId",
          "type": "uint256"
        }
      ],
      "name": "getApproved",
      "outputs": [
        {
          "internalType": "address",
          "name": "",
          "type": "address"
        }
      ],
      "stateMutability": "view",
      "type": "function"
    },
    {
      "inputs": [
        {
          "internalType": "address",
          "name": "owner",
          "type": "address"
        },
        {
          "internalType": "address",
          "name": "operator",
          "type": "address"
        }
      ],
      "name": "isApprovedForAll",
      "outputs": [
        {
          "internalType": "bool",
          "name": "",
          "type": "bool"
        }
      ],
      "stateMutability": "view",
      "type": "function"
    },
    {
      "inputs": [],
      "name": "maxSupply",
      "outputs": [
        {
          "internalType": "uint256",
          "name": "",
          "type": "uint256"
        }
      ],
      "stateMutability": "view",
      "type": "function"
    },
    {
      "inputs": [
        {
          "internalType": "address",
          "name": "owner",
          "type": "address"
        },
        {
          "internalType": "string",
          "name": "_tokenURI",
          "type": "string"
        }
      ],
      "name": "mint",
      "outputs": [
        {
          "internalType": "uint256",
          "name": "",
          "type": "uint256"
        }
      ],
      "stateMutability": "nonpayable",
      "type": "function"
    },
    {
      "inputs": [],
      "name": "name",
      "outputs": [
        {
          "internalType": "string",
          "name": "",
          "type": "string"
        }
      ],
      "stateMutability": "view",
      "type": "function"
    },
    {
      "inputs": [],
      "name": "owner",
      "outputs": [
        {
          "internalType": "address",
          "name": "",
          "type": "address"
        }
      ],
      "stateMutability": "view",
      "type": "function"
    },
    {
      "inputs": [
        {
          "internalType": "uint256",
          "name": "tokenId",
          "type": "uint256"
        }
      ],
      "name": "ownerOf",
      "outputs": [
        {
          "internalType": "address",
          "name": "",
          "type": "address"
        }
      ],
      "stateMutability": "view",
      "type": "function"
    },
    {
      "inputs": [
        {
          "internalType": "bool",
          "name": "_state",
          "type": "bool"
        }
      ],
      "name": "pause",
      "outputs": [],
      "stateMutability": "nonpayable",
      "type": "function"
    },
    {
      "inputs": [],
      "name": "paused",
      "outputs": [
        {
          "internalType": "bool",
          "name": "",
          "type": "bool"
        }
      ],
      "stateMutability": "view",
      "type": "function"
    },
    {
      "inputs": [],
      "name": "renounceOwnership",
      "outputs": [],
      "stateMutability": "nonpayable",
      "type": "function"
    },
    {
      "inputs": [
        {
          "internalType": "address",
          "name": "from",
          "type": "address"
        },
        {
          "internalType": "address",
          "name": "to",
          "type": "address"
        },
        {
          "internalType": "uint256",
          "name": "tokenId",
          "type": "uint256"
        }
      ],
      "name": "safeTransferFrom",
      "outputs": [],
      "stateMutability": "nonpayable",
      "type": "function"
    },
    {
      "inputs": [
        {
          "internalType": "address",
          "name": "from",
          "type": "address"
        },
        {
          "internalType": "address",
          "name": "to",
          "type": "address"
        },
        {
          "internalType": "uint256",
          "name": "tokenId",
          "type": "uint256"
        },
        {
          "internalType": "bytes",
          "name": "_data",
          "type": "bytes"
        }
      ],
      "name": "safeTransferFrom",
      "outputs": [],
      "stateMutability": "nonpayable",
      "type": "function"
    },
    {
      "inputs": [
        {
          "internalType": "address",
          "name": "operator",
          "type": "address"
        },
        {
          "internalType": "bool",
          "name": "approved",
          "type": "bool"
        }
      ],
      "name": "setApprovalForAll",
      "outputs": [],
      "stateMutability": "nonpayable",
      "type": "function"
    },
    {
      "inputs": [
        {
          "internalType": "uint256",
          "name": "_newmaxSupply",
          "type": "uint256"
        }
      ],
      "name": "setmaxSupply",
      "outputs": [],
      "stateMutability": "nonpayable",
      "type": "function"
    },
    {
      "inputs": [
        {
          "internalType": "bytes4",
          "name": "interfaceId",
          "type": "bytes4"
        }
      ],
      "name": "supportsInterface",
      "outputs": [
        {
          "internalType": "bool",
          "name": "",
          "type": "bool"
        }
      ],
      "stateMutability": "view",
      "type": "function"
    },
    {
      "inputs": [],
      "name": "symbol",
      "outputs": [
        {
          "internalType": "string",
          "name": "",
          "type": "string"
        }
      ],
      "stateMutability": "view",
      "type": "function"
    },
    {
      "inputs": [
        {
          "internalType": "uint256",
          "name": "tokenId",
          "type": "uint256"
        }
      ],
      "name": "tokenURI",
      "outputs": [
        {
          "internalType": "string",
          "name": "",
          "type": "string"
        }
      ],
      "stateMutability": "view",
      "type": "function"
    },
    {
      "inputs": [],
      "name": "totalSupply",
      "outputs": [
        {
          "internalType": "uint256",
          "name": "",
          "type": "uint256"
        }
      ],
      "stateMutability": "view",
      "type": "function"
    },
    {
      "inputs": [
        {
          "internalType": "address",
          "name": "from",
          "type": "address"
        },
        {
          "internalType": "address",
          "name": "to",
          "type": "address"
        },
        {
          "internalType": "uint256",
          "name": "tokenId",
          "type": "uint256"
        }
      ],
      "name": "transferFrom",
      "outputs": [],
      "stateMutability": "nonpayable",
      "type": "function"
    },
    {
      "inputs": [
        {
          "internalType": "address",
          "name": "newOwner",
          "type": "address"
        }
      ],
      "name": "transferOwnership",
      "outputs": [],
      "stateMutability": "nonpayable",
      "type": "function"
    }
  ],
  "bytecode": "0x608060405260d2600955600a805460ff191690553480156200002057600080fd5b50604051620020c2380380620020c28339810160408190526200004391620002cf565b8151829082906200005c9060009060208501906200017e565b508051620000729060019060208401906200017e565b5050506200008f62000089620000b160201b60201c565b620000b5565b604080516020810190915260008152620000a99062000107565b5050620003be565b3390565b600680546001600160a01b038381166001600160a01b0319831681179093556040519116919082907f8be0079c531659141344cd1fd0a4f28419497f9722a3daafe3b4186f6b6457e090600090a35050565b62000111620000b1565b6001600160a01b0316620001246200016f565b6001600160a01b031614620001565760405162461bcd60e51b81526004016200014d9062000336565b60405180910390fd5b80516200016b9060089060208401906200017e565b5050565b6006546001600160a01b031690565b8280546200018c906200036b565b90600052602060002090601f016020900481019282620001b05760008555620001fb565b82601f10620001cb57805160ff1916838001178555620001fb565b82800160010185558215620001fb579182015b82811115620001fb578251825591602001919060010190620001de565b50620002099291506200020d565b5090565b5b808211156200020957600081556001016200020e565b600082601f83011262000235578081fd5b81516001600160401b0380821115620002525762000252620003a8565b6040516020601f8401601f19168201810183811183821017156200027a576200027a620003a8565b604052838252858401810187101562000291578485fd5b8492505b83831015620002b4578583018101518284018201529182019162000295565b83831115620002c557848185840101525b5095945050505050565b60008060408385031215620002e2578182fd5b82516001600160401b0380821115620002f9578384fd5b620003078683870162000224565b935060208501519150808211156200031d578283fd5b506200032c8582860162000224565b9150509250929050565b6020808252818101527f4f776e61626c653a2063616c6c6572206973206e6f7420746865206f776e6572604082015260600190565b6002810460018216806200038057607f821691505b60208210811415620003a257634e487b7160e01b600052602260045260246000fd5b50919050565b634e487b7160e01b600052604160045260246000fd5b611cf480620003ce6000396000f3fe608060405234801561001057600080fd5b50600436106101585760003560e01c80636352211e116100c3578063b88d4fde1161007c578063b88d4fde146102b0578063c87b56dd146102c3578063d0def521146102d6578063d5abeb01146102e9578063e985e9c5146102f1578063f2fde38b1461030457610158565b80636352211e1461025f57806370a0823114610272578063715018a6146102855780638da5cb5b1461028d57806395d89b4114610295578063a22cb4651461029d57610158565b8063228025e811610115578063228025e8146101f857806323b872dd1461020b57806331b5b9071461021e578063396dc8541461023157806342842e0e146102445780635c975abb1461025757610158565b806301ffc9a71461015d57806302329a291461018657806306fdde031461019b578063081812fc146101b0578063095ea7b3146101d057806318160ddd146101e3575b600080fd5b61017061016b3660046114d2565b610317565b60405161017d9190611601565b60405180910390f35b6101996101943660046114b8565b61035f565b005b6101a36103ba565b60405161017d919061160c565b6101c36101be36600461153d565b61044c565b60405161017d91906115b0565b6101996101de36600461148f565b61048f565b6101eb610527565b60405161017d9190611b84565b61019961020636600461153d565b610538565b610199610219366004611366565b61057c565b61019961022c36600461150a565b6105b4565b61017061023f36600461131a565b61060a565b610199610252366004611366565b61061f565b61017061063a565b6101c361026d36600461153d565b610643565b6101eb61028036600461131a565b610678565b6101996106bc565b6101c3610707565b6101a3610716565b6101996102ab36600461141a565b610725565b6101996102be3660046113a1565b610737565b6101a36102d136600461153d565b610776565b6101eb6102e4366004611443565b6108b9565b6101eb6109d5565b6101706102ff366004611334565b6109db565b61019961031236600461131a565b610a09565b60006001600160e01b031982166380ac58cd60e01b148061034857506001600160e01b03198216635b5e139f60e01b145b80610357575061035782610a7a565b90505b919050565b610367610a93565b6001600160a01b0316610378610707565b6001600160a01b0316146103a75760405162461bcd60e51b815260040161039e906119a9565b60405180910390fd5b600a805460ff1916911515919091179055565b6060600080546103c990611bfc565b80601f01602080910402602001604051908101604052809291908181526020018280546103f590611bfc565b80156104425780601f1061041757610100808354040283529160200191610442565b820191906000526020600020905b81548152906001019060200180831161042557829003601f168201915b5050505050905090565b600061045782610a97565b6104735760405162461bcd60e51b815260040161039e90611911565b506000908152600460205260409020546001600160a01b031690565b600061049a82610643565b9050806001600160a01b0316836001600160a01b031614156104ce5760405162461bcd60e51b815260040161039e90611a76565b806001600160a01b03166104e0610a93565b6001600160a01b031614806104fc57506104fc816102ff610a93565b6105185760405162461bcd60e51b815260040161039e906117b5565b6105228383610ab4565b505050565b60006105336007610b22565b905090565b610540610a93565b6001600160a01b0316610551610707565b6001600160a01b0316146105775760405162461bcd60e51b815260040161039e906119a9565b600955565b61058d610587610a93565b82610b26565b6105a95760405162461bcd60e51b815260040161039e90611ab7565b610522838383610bab565b6105bc610a93565b6001600160a01b03166105cd610707565b6001600160a01b0316146105f35760405162461bcd60e51b815260040161039e906119a9565b80516106069060089060208401906111c4565b5050565b600b6020526000908152604090205460ff1681565b61052283838360405180602001604052806000815250610737565b600a5460ff1681565b6000818152600260205260408120546001600160a01b0316806103575760405162461bcd60e51b815260040161039e90611893565b60006001600160a01b0382166106a05760405162461bcd60e51b815260040161039e90611812565b506001600160a01b031660009081526003602052604090205490565b6106c4610a93565b6001600160a01b03166106d5610707565b6001600160a01b0316146106fb5760405162461bcd60e51b815260040161039e906119a9565b6107056000610cd8565b565b6006546001600160a01b031690565b6060600180546103c990611bfc565b610606610730610a93565b8383610d2a565b610748610742610a93565b83610b26565b6107645760405162461bcd60e51b815260040161039e90611ab7565b61077084848484610dcd565b50505050565b606061078182610a97565b61079d5760405162461bcd60e51b815260040161039e90611a27565b6000828152600c6020526040812080546107b690611bfc565b80601f01602080910402602001604051908101604052809291908181526020018280546107e290611bfc565b801561082f5780601f106108045761010080835404028352916020019161082f565b820191906000526020600020905b81548152906001019060200180831161081257829003601f168201915b505050505090506000610840610e00565b90508051600014156108545750905061035a565b81511561088657808260405160200161086e929190611581565b6040516020818303038152906040529250505061035a565b8061089085610e0f565b6040516020016108a1929190611581565b60405160208183030381529060405292505050919050565b60006108c3610a93565b6001600160a01b03166108d4610707565b6001600160a01b0316146108fa5760405162461bcd60e51b815260040161039e906119a9565b6109046007610f2a565b60006109106007610b22565b600a5490915060ff16156109365760405162461bcd60e51b815260040161039e9061185c565b6009548111156109585760405162461bcd60e51b815260040161039e90611b3f565b6001600160a01b0384166000908152600b602052604090205460ff161515600114156109965760405162461bcd60e51b815260040161039e90611b08565b6109a08482610f33565b6109aa8184610f4d565b6001600160a01b0384166000908152600b60205260409020805460ff19166001179055905092915050565b60095481565b6001600160a01b03918216600090815260056020908152604080832093909416825291909152205460ff1690565b610a11610a93565b6001600160a01b0316610a22610707565b6001600160a01b031614610a485760405162461bcd60e51b815260040161039e906119a9565b6001600160a01b038116610a6e5760405162461bcd60e51b815260040161039e90611671565b610a7781610cd8565b50565b6001600160e01b031981166301ffc9a760e01b14919050565b3390565b6000908152600260205260409020546001600160a01b0316151590565b600081815260046020526040902080546001600160a01b0319166001600160a01b0384169081179091558190610ae982610643565b6001600160a01b03167f8c5be1e5ebec7d5bd14f71427d1e84f3dd0314c0f7b2291e5b200ac8c7c3b92560405160405180910390a45050565b5490565b6000610b3182610a97565b610b4d5760405162461bcd60e51b815260040161039e90611769565b6000610b5883610643565b9050806001600160a01b0316846001600160a01b03161480610b935750836001600160a01b0316610b888461044c565b6001600160a01b0316145b80610ba35750610ba381856109db565b949350505050565b826001600160a01b0316610bbe82610643565b6001600160a01b031614610be45760405162461bcd60e51b815260040161039e906119de565b6001600160a01b038216610c0a5760405162461bcd60e51b815260040161039e906116ee565b610c15838383610522565b610c20600082610ab4565b6001600160a01b0383166000908152600360205260408120805460019290610c49908490611bb9565b90915550506001600160a01b0382166000908152600360205260408120805460019290610c77908490611b8d565b909155505060008181526002602052604080822080546001600160a01b0319166001600160a01b0386811691821790925591518493918716917fddf252ad1be2c89b69c2b068fc378daa952ba7f163c4a11628f55a4df523b3ef91a4505050565b600680546001600160a01b038381166001600160a01b0319831681179093556040519116919082907f8be0079c531659141344cd1fd0a4f28419497f9722a3daafe3b4186f6b6457e090600090a35050565b816001600160a01b0316836001600160a01b03161415610d5c5760405162461bcd60e51b815260040161039e90611732565b6001600160a01b0383811660008181526005602090815260408083209487168084529490915290819020805460ff1916851515179055517f17307eab39ab6107e8899845ad3d59bd9653f200f220920489ca2b5937696c3190610dc0908590611601565b60405180910390a3505050565b610dd8848484610bab565b610de484848484610f91565b6107705760405162461bcd60e51b815260040161039e9061161f565b6060600880546103c990611bfc565b606081610e3457506040805180820190915260018152600360fc1b602082015261035a565b8160005b8115610e5e5780610e4881611c37565b9150610e579050600a83611ba5565b9150610e38565b60008167ffffffffffffffff811115610e8757634e487b7160e01b600052604160045260246000fd5b6040519080825280601f01601f191660200182016040528015610eb1576020820181803683370190505b5090505b8415610ba357610ec6600183611bb9565b9150610ed3600a86611c52565b610ede906030611b8d565b60f81b818381518110610f0157634e487b7160e01b600052603260045260246000fd5b60200101906001600160f81b031916908160001a905350610f23600a86611ba5565b9450610eb5565b80546001019055565b6106068282604051806020016040528060008152506110ac565b610f5682610a97565b610f725760405162461bcd60e51b815260040161039e9061195d565b6000828152600c602090815260409091208251610522928401906111c4565b6000610fa5846001600160a01b03166110df565b156110a157836001600160a01b031663150b7a02610fc1610a93565b8786866040518563ffffffff1660e01b8152600401610fe394939291906115c4565b602060405180830381600087803b158015610ffd57600080fd5b505af192505050801561102d575060408051601f3d908101601f1916820190925261102a918101906114ee565b60015b611087573d80801561105b576040519150601f19603f3d011682016040523d82523d6000602084013e611060565b606091505b50805161107f5760405162461bcd60e51b815260040161039e9061161f565b805181602001fd5b6001600160e01b031916630a85bd0160e11b149050610ba3565b506001949350505050565b6110b683836110e5565b6110c36000848484610f91565b6105225760405162461bcd60e51b815260040161039e9061161f565b3b151590565b6001600160a01b03821661110b5760405162461bcd60e51b815260040161039e906118dc565b61111481610a97565b156111315760405162461bcd60e51b815260040161039e906116b7565b61113d60008383610522565b6001600160a01b0382166000908152600360205260408120805460019290611166908490611b8d565b909155505060008181526002602052604080822080546001600160a01b0319166001600160a01b03861690811790915590518392907fddf252ad1be2c89b69c2b068fc378daa952ba7f163c4a11628f55a4df523b3ef908290a45050565b8280546111d090611bfc565b90600052602060002090601f0160209004810192826111f25760008555611238565b82601f1061120b57805160ff1916838001178555611238565b82800160010185558215611238579182015b8281111561123857825182559160200191906001019061121d565b50611244929150611248565b5090565b5b808211156112445760008155600101611249565b600067ffffffffffffffff8084111561127857611278611c92565b604051601f8501601f19168101602001828111828210171561129c5761129c611c92565b6040528481529150818385018610156112b457600080fd5b8484602083013760006020868301015250509392505050565b80356001600160a01b038116811461035a57600080fd5b8035801515811461035a57600080fd5b600082601f830112611304578081fd5b6113138383356020850161125d565b9392505050565b60006020828403121561132b578081fd5b611313826112cd565b60008060408385031215611346578081fd5b61134f836112cd565b915061135d602084016112cd565b90509250929050565b60008060006060848603121561137a578081fd5b611383846112cd565b9250611391602085016112cd565b9150604084013590509250925092565b600080600080608085870312156113b6578081fd5b6113bf856112cd565b93506113cd602086016112cd565b925060408501359150606085013567ffffffffffffffff8111156113ef578182fd5b8501601f810187136113ff578182fd5b61140e8782356020840161125d565b91505092959194509250565b6000806040838503121561142c578182fd5b611435836112cd565b915061135d602084016112e4565b60008060408385031215611455578182fd5b61145e836112cd565b9150602083013567ffffffffffffffff811115611479578182fd5b611485858286016112f4565b9150509250929050565b600080604083850312156114a1578182fd5b6114aa836112cd565b946020939093013593505050565b6000602082840312156114c9578081fd5b611313826112e4565b6000602082840312156114e3578081fd5b813561131381611ca8565b6000602082840312156114ff578081fd5b815161131381611ca8565b60006020828403121561151b578081fd5b813567ffffffffffffffff811115611531578182fd5b610ba3848285016112f4565b60006020828403121561154e578081fd5b5035919050565b6000815180845261156d816020860160208601611bd0565b601f01601f19169290920160200192915050565b60008351611593818460208801611bd0565b8351908301906115a7818360208801611bd0565b01949350505050565b6001600160a01b0391909116815260200190565b6001600160a01b03858116825284166020820152604081018390526080606082018190526000906115f790830184611555565b9695505050505050565b901515815260200190565b6000602082526113136020830184611555565b60208082526032908201527f4552433732313a207472616e7366657220746f206e6f6e20455243373231526560408201527131b2b4bb32b91034b6b83632b6b2b73a32b960711b606082015260800190565b60208082526026908201527f4f776e61626c653a206e6577206f776e657220697320746865207a65726f206160408201526564647265737360d01b606082015260800190565b6020808252601c908201527f4552433732313a20746f6b656e20616c7265616479206d696e74656400000000604082015260600190565b60208082526024908201527f4552433732313a207472616e7366657220746f20746865207a65726f206164646040820152637265737360e01b606082015260800190565b60208082526019908201527f4552433732313a20617070726f766520746f2063616c6c657200000000000000604082015260600190565b6020808252602c908201527f4552433732313a206f70657261746f7220717565727920666f72206e6f6e657860408201526b34b9ba32b73a103a37b5b2b760a11b606082015260800190565b60208082526038908201527f4552433732313a20617070726f76652063616c6c6572206973206e6f74206f7760408201527f6e6572206e6f7220617070726f76656420666f7220616c6c0000000000000000606082015260800190565b6020808252602a908201527f4552433732313a2062616c616e636520717565727920666f7220746865207a65604082015269726f206164647265737360b01b606082015260800190565b60208082526018908201527f5469636b6574206d696e74696e67206973207061757365640000000000000000604082015260600190565b60208082526029908201527f4552433732313a206f776e657220717565727920666f72206e6f6e657869737460408201526832b73a103a37b5b2b760b91b606082015260800190565b6020808252818101527f4552433732313a206d696e7420746f20746865207a65726f2061646472657373604082015260600190565b6020808252602c908201527f4552433732313a20617070726f76656420717565727920666f72206e6f6e657860408201526b34b9ba32b73a103a37b5b2b760a11b606082015260800190565b6020808252602c908201527f4552433732314d657461646174613a2055524920736574206f66206e6f6e657860408201526b34b9ba32b73a103a37b5b2b760a11b606082015260800190565b6020808252818101527f4f776e61626c653a2063616c6c6572206973206e6f7420746865206f776e6572604082015260600190565b60208082526029908201527f4552433732313a207472616e73666572206f6620746f6b656e2074686174206960408201526839903737ba1037bbb760b91b606082015260800190565b6020808252602f908201527f4552433732314d657461646174613a2055524920717565727920666f72206e6f60408201526e3732bc34b9ba32b73a103a37b5b2b760891b606082015260800190565b60208082526021908201527f4552433732313a20617070726f76616c20746f2063757272656e74206f776e656040820152603960f91b606082015260800190565b60208082526031908201527f4552433732313a207472616e736665722063616c6c6572206973206e6f74206f6040820152701ddb995c881b9bdc88185c1c1c9bdd9959607a1b606082015260800190565b6020808252601e908201527f557365722068617320616c7265616479206d696e74656420616e204e46540000604082015260600190565b60208082526025908201527f596f752063616e2774206d696e74206265796f756e6420746865206d617820736040820152647570706c7960d81b606082015260800190565b90815260200190565b60008219821115611ba057611ba0611c66565b500190565b600082611bb457611bb4611c7c565b500490565b600082821015611bcb57611bcb611c66565b500390565b60005b83811015611beb578181015183820152602001611bd3565b838111156107705750506000910152565b600281046001821680611c1057607f821691505b60208210811415611c3157634e487b7160e01b600052602260045260246000fd5b50919050565b6000600019821415611c4b57611c4b611c66565b5060010190565b600082611c6157611c61611c7c565b500690565b634e487b7160e01b600052601160045260246000fd5b634e487b7160e01b600052601260045260246000fd5b634e487b7160e01b600052604160045260246000fd5b6001600160e01b031981168114610a7757600080fdfea26469706673582212203df86aefc31073718e3e5e9988b9085b31ae8c124ebe18e0bfcb8e395e040b8564736f6c63430008000033",
  "linkReferences": {},
  "deployedLinkReferences": {}
}